{
  "_format": "hh-sol-artifact-1",
  "contractName": "Operations",
  "sourceName": "contracts/Operations.sol",
  "abi": [
    {
      "inputs": [],
      "stateMutability": "nonpayable",
      "type": "constructor"
    },
    {
      "anonymous": false,
      "inputs": [
        {
          "indexed": true,
          "internalType": "address",
          "name": "_admin",
          "type": "address"
        }
      ],
      "name": "AddedAdmin",
      "type": "event"
    },
    {
      "anonymous": false,
      "inputs": [
        {
          "indexed": true,
          "internalType": "address",
          "name": "_authorizer",
          "type": "address"
        }
      ],
      "name": "AddedAuthorizer",
      "type": "event"
    },
    {
      "anonymous": false,
      "inputs": [
        {
          "indexed": false,
          "internalType": "address",
          "name": "_user",
          "type": "address"
        }
      ],
      "name": "AddedBlackList",
      "type": "event"
    },
    {
      "anonymous": false,
      "inputs": [
        {
          "indexed": false,
          "internalType": "address",
          "name": "previousAdmin",
          "type": "address"
        },
        {
          "indexed": false,
          "internalType": "address",
          "name": "newAdmin",
          "type": "address"
        }
      ],
      "name": "AdminChanged",
      "type": "event"
    },
    {
      "anonymous": false,
      "inputs": [
        {
          "indexed": true,
          "internalType": "address",
          "name": "beacon",
          "type": "address"
        }
      ],
      "name": "BeaconUpgraded",
      "type": "event"
    },
    {
      "anonymous": false,
      "inputs": [
        {
          "indexed": false,
          "internalType": "address",
          "name": "_User",
          "type": "address"
        },
        {
          "indexed": false,
          "internalType": "uint256",
          "name": "_amount",
          "type": "uint256"
        }
      ],
      "name": "DestroyedBlackFunds",
      "type": "event"
    },
    {
      "anonymous": false,
      "inputs": [
        {
          "indexed": false,
          "internalType": "uint8",
          "name": "version",
          "type": "uint8"
        }
      ],
      "name": "Initialized",
      "type": "event"
    },
    {
      "anonymous": false,
      "inputs": [
        {
          "indexed": true,
          "internalType": "address",
          "name": "previousOwner",
          "type": "address"
        },
        {
          "indexed": true,
          "internalType": "address",
          "name": "newOwner",
          "type": "address"
        }
      ],
      "name": "OwnershipTransferred",
      "type": "event"
    },
    {
      "anonymous": false,
      "inputs": [
        {
          "indexed": false,
          "internalType": "address",
          "name": "account",
          "type": "address"
        }
      ],
      "name": "Paused",
      "type": "event"
    },
    {
      "anonymous": false,
      "inputs": [
        {
          "indexed": false,
          "internalType": "address",
          "name": "_user",
          "type": "address"
        }
      ],
      "name": "RemoveAddressList",
      "type": "event"
    },
    {
      "anonymous": false,
      "inputs": [
        {
          "indexed": true,
          "internalType": "address",
          "name": "_admin",
          "type": "address"
        }
      ],
      "name": "RemovedAdmin",
      "type": "event"
    },
    {
      "anonymous": false,
      "inputs": [
        {
          "indexed": true,
          "internalType": "address",
          "name": "_authorizer",
          "type": "address"
        }
      ],
      "name": "RemovedAuthorizer",
      "type": "event"
    },
    {
      "anonymous": false,
      "inputs": [
        {
          "indexed": false,
          "internalType": "address",
          "name": "_user",
          "type": "address"
        }
      ],
      "name": "RemovedBlackList",
      "type": "event"
    },
    {
      "anonymous": false,
      "inputs": [
        {
          "indexed": true,
          "internalType": "address",
          "name": "_user",
          "type": "address"
        }
      ],
      "name": "SetAddressList",
      "type": "event"
    },
    {
      "anonymous": false,
      "inputs": [
        {
          "indexed": false,
          "internalType": "address",
          "name": "account",
          "type": "address"
        }
      ],
      "name": "Unpaused",
      "type": "event"
    },
    {
      "anonymous": false,
      "inputs": [
        {
          "indexed": true,
          "internalType": "address",
          "name": "implementation",
          "type": "address"
        }
      ],
      "name": "Upgraded",
      "type": "event"
    },
    {
      "inputs": [
        {
          "internalType": "address",
          "name": "_AdminID",
          "type": "address"
        }
      ],
      "name": "AddAdmin",
      "outputs": [
        {
          "internalType": "bool",
          "name": "",
          "type": "bool"
        }
      ],
      "stateMutability": "nonpayable",
      "type": "function"
    },
    {
      "inputs": [
        {
          "internalType": "address",
          "name": "authorizer",
          "type": "address"
        }
      ],
      "name": "AddAuthorizer",
      "outputs": [
        {
          "internalType": "bool",
          "name": "",
          "type": "bool"
        }
      ],
      "stateMutability": "nonpayable",
      "type": "function"
    },
    {
      "inputs": [
        {
          "internalType": "address",
          "name": "_evilUser",
          "type": "address"
        }
      ],
      "name": "AddBlackList",
      "outputs": [],
      "stateMutability": "nonpayable",
      "type": "function"
    },
    {
      "inputs": [
        {
          "internalType": "address",
          "name": "_addr",
          "type": "address"
        }
      ],
      "name": "CheckUserList",
      "outputs": [
        {
          "internalType": "bool",
          "name": "",
          "type": "bool"
        }
      ],
      "stateMutability": "view",
      "type": "function"
    },
    {
      "inputs": [],
      "name": "GetAdminList",
      "outputs": [
        {
          "internalType": "address[]",
          "name": "",
          "type": "address[]"
        }
      ],
      "stateMutability": "view",
      "type": "function"
    },
    {
      "inputs": [],
      "name": "GetAuthorizerList",
      "outputs": [
        {
          "internalType": "address[]",
          "name": "",
          "type": "address[]"
        }
      ],
      "stateMutability": "view",
      "type": "function"
    },
    {
      "inputs": [],
      "name": "GetBlackListed",
      "outputs": [
        {
          "internalType": "address[]",
          "name": "",
          "type": "address[]"
        }
      ],
      "stateMutability": "view",
      "type": "function"
    },
    {
      "inputs": [],
      "name": "GetUsersList",
      "outputs": [
        {
          "internalType": "address[]",
          "name": "",
          "type": "address[]"
        }
      ],
      "stateMutability": "view",
      "type": "function"
    },
    {
      "inputs": [
        {
          "internalType": "address",
          "name": "_addr",
          "type": "address"
        }
      ],
      "name": "RemoveAdmin",
      "outputs": [
        {
          "internalType": "bool",
          "name": "",
          "type": "bool"
        }
      ],
      "stateMutability": "nonpayable",
      "type": "function"
    },
    {
      "inputs": [
        {
          "internalType": "address",
          "name": "_authorizer",
          "type": "address"
        }
      ],
      "name": "RemoveAuthorizer",
      "outputs": [
        {
          "internalType": "bool",
          "name": "",
          "type": "bool"
        }
      ],
      "stateMutability": "nonpayable",
      "type": "function"
    },
    {
      "inputs": [
        {
          "internalType": "address",
          "name": "_clearedUser",
          "type": "address"
        }
      ],
      "name": "RemoveBlackList",
      "outputs": [
        {
          "internalType": "bool",
          "name": "",
          "type": "bool"
        }
      ],
      "stateMutability": "nonpayable",
      "type": "function"
    },
    {
      "inputs": [
        {
          "internalType": "address",
          "name": "_addr",
          "type": "address"
        }
      ],
      "name": "RemoveUserList",
      "outputs": [
        {
          "internalType": "bool",
          "name": "",
          "type": "bool"
        }
      ],
      "stateMutability": "nonpayable",
      "type": "function"
    },
    {
      "inputs": [
        {
          "internalType": "address",
          "name": "_addr",
          "type": "address"
        }
      ],
      "name": "SetUserList",
      "outputs": [
        {
          "internalType": "bool",
          "name": "",
          "type": "bool"
        }
      ],
      "stateMutability": "nonpayable",
      "type": "function"
    },
    {
      "inputs": [],
      "name": "initialize",
      "outputs": [],
      "stateMutability": "nonpayable",
      "type": "function"
    },
    {
      "inputs": [
        {
          "internalType": "address",
          "name": "",
          "type": "address"
        }
      ],
      "name": "isAdmin",
      "outputs": [
        {
          "internalType": "bool",
          "name": "",
          "type": "bool"
        }
      ],
      "stateMutability": "view",
      "type": "function"
    },
    {
      "inputs": [
        {
          "internalType": "address",
          "name": "",
          "type": "address"
        }
      ],
      "name": "isAuthorizer",
      "outputs": [
        {
          "internalType": "bool",
          "name": "",
          "type": "bool"
        }
      ],
      "stateMutability": "view",
      "type": "function"
    },
    {
      "inputs": [
        {
          "internalType": "address",
          "name": "",
          "type": "address"
        }
      ],
      "name": "isBlackListed",
      "outputs": [
        {
          "internalType": "bool",
          "name": "",
          "type": "bool"
        }
      ],
      "stateMutability": "view",
      "type": "function"
    },
    {
      "inputs": [
        {
          "internalType": "address",
          "name": "_addr",
          "type": "address"
        }
      ],
      "name": "isBlackListedAddress",
      "outputs": [
        {
          "internalType": "bool",
          "name": "",
          "type": "bool"
        }
      ],
      "stateMutability": "view",
      "type": "function"
    },
    {
      "inputs": [
        {
          "internalType": "address",
          "name": "",
          "type": "address"
        }
      ],
      "name": "isUserListed",
      "outputs": [
        {
          "internalType": "bool",
          "name": "",
          "type": "bool"
        }
      ],
      "stateMutability": "view",
      "type": "function"
    },
    {
      "inputs": [],
      "name": "owner",
      "outputs": [
        {
          "internalType": "address",
          "name": "",
          "type": "address"
        }
      ],
      "stateMutability": "view",
      "type": "function"
    },
    {
      "inputs": [],
      "name": "paused",
      "outputs": [
        {
          "internalType": "bool",
          "name": "",
          "type": "bool"
        }
      ],
      "stateMutability": "view",
      "type": "function"
    },
    {
      "inputs": [],
      "name": "proxiableUUID",
      "outputs": [
        {
          "internalType": "bytes32",
          "name": "",
          "type": "bytes32"
        }
      ],
      "stateMutability": "view",
      "type": "function"
    },
    {
      "inputs": [],
      "name": "renounceOwnership",
      "outputs": [],
      "stateMutability": "nonpayable",
      "type": "function"
    },
    {
      "inputs": [
        {
          "internalType": "address",
          "name": "newOwner",
          "type": "address"
        }
      ],
      "name": "transferOwnership",
      "outputs": [],
      "stateMutability": "nonpayable",
      "type": "function"
    },
    {
      "inputs": [
        {
          "internalType": "address",
          "name": "newImplementation",
          "type": "address"
        }
      ],
      "name": "upgradeTo",
      "outputs": [],
      "stateMutability": "nonpayable",
      "type": "function"
    },
    {
      "inputs": [
        {
          "internalType": "address",
          "name": "newImplementation",
          "type": "address"
        },
        {
          "internalType": "bytes",
          "name": "data",
          "type": "bytes"
        }
      ],
      "name": "upgradeToAndCall",
      "outputs": [],
      "stateMutability": "payable",
      "type": "function"
    }
  ],
  "bytecode": "0x60a06040523060601b60805234801561001757600080fd5b50610020610025565b6100e5565b600054610100900460ff16156100915760405162461bcd60e51b815260206004820152602760248201527f496e697469616c697a61626c653a20636f6e747261637420697320696e697469604482015266616c697a696e6760c81b606482015260840160405180910390fd5b60005460ff90811610156100e3576000805460ff191660ff9081179091556040519081527f7f26b83ff96e1f2b6a682f133852f6798a09c465da95921460cefb38474024989060200160405180910390a15b565b60805160601c61240d62000120600039600081816108c201528181610902015281816109a2015281816109e20152610a75015261240d6000f3fe6080604052600436106101815760003560e01c8063753f40ca116100d1578063dea0959d1161008a578063e58791ce11610064578063e58791ce14610496578063ee2614a8146104b6578063f2fde38b146104d6578063f9dfc505146104f657600080fd5b8063dea0959d14610430578063e259b36114610445578063e47d60601461046557600080fd5b8063753f40ca146103645780638129fc1c1461038457806386147c32146103995780638da5cb5b146103ae578063ad6de445146103d6578063b33fde1b146103f657600080fd5b806346e7ccac1161013e578063586130be11610118578063586130be146102dd5780635c975abb146102fd5780636f4d981714610315578063715018a61461034f57600080fd5b806346e7ccac146102765780634f1ef286146102a757806352d1902d146102ba57600080fd5b8063091c18aa1461018657806321513130146101cc5780632234edb6146101ee57806324d7806c1461020e57806333cbbef11461023f5780633659cfe614610254575b600080fd5b34801561019257600080fd5b506101b76101a1366004612011565b6101036020526000908152604090205460ff1681565b60405190151581526020015b60405180910390f35b3480156101d857600080fd5b506101e1610516565b6040516101c3919061211c565b3480156101fa57600080fd5b506101b7610209366004612011565b6105b4565b34801561021a57600080fd5b506101b7610229366004612011565b6101016020526000908152604090205460ff1681565b34801561024b57600080fd5b506101e1610824565b34801561026057600080fd5b5061027461026f366004612011565b6108b7565b005b34801561028257600080fd5b506101b7610291366004612011565b6101026020526000908152604090205460ff1681565b6102746102b536600461202b565b610997565b3480156102c657600080fd5b506102cf610a68565b6040519081526020016101c3565b3480156102e957600080fd5b506101b76102f8366004612011565b610b1b565b34801561030957600080fd5b5060655460ff166101b7565b34801561032157600080fd5b506101b7610330366004612011565b6001600160a01b03166000908152610103602052604090205460ff1690565b34801561035b57600080fd5b50610274610c68565b34801561037057600080fd5b506101b761037f366004612011565b610c7c565b34801561039057600080fd5b50610274610e62565b3480156103a557600080fd5b506101e1610ff3565b3480156103ba57600080fd5b506033546040516001600160a01b0390911681526020016101c3565b3480156103e257600080fd5b506101b76103f1366004612011565b611056565b34801561040257600080fd5b506101b7610411366004612011565b6001600160a01b03166000908152610104602052604090205460ff1690565b34801561043c57600080fd5b506101e161119e565b34801561045157600080fd5b506101b7610460366004612011565b611231565b34801561047157600080fd5b506101b7610480366004612011565b6101046020526000908152604090205460ff1681565b3480156104a257600080fd5b506101b76104b1366004612011565b611396565b3480156104c257600080fd5b506101b76104d1366004612011565b611621565b3480156104e257600080fd5b506102746104f1366004612011565b611830565b34801561050257600080fd5b50610274610511366004612011565b6118a6565b33600081815261010160205260409020546060919060ff166105535760405162461bcd60e51b815260040161054a906121c8565b60405180910390fd5b60ff8054806020026020016040519081016040528092919081815260200182805480156105a957602002820191906000526020600020905b81546001600160a01b0316815260019091019060200180831161058b575b505050505091505090565b336000818152610101602052604081205490919060ff166105e75760405162461bcd60e51b815260040161054a906121c8565b826001600160a01b03811661060e5760405162461bcd60e51b815260040161054a9061228e565b6001600160a01b0384166000908152610104602052604090205460ff166106735760405162461bcd60e51b815260206004820152601960248201527820b2323932b9b9903737ba1030902634b9ba32b2102ab9b2b960391b604482015260640161054a565b60005b60ff5461068590600190612306565b81101561078257846001600160a01b031661010082815481106106b857634e487b7160e01b600052603260045260246000fd5b6000918252602090912001546001600160a01b031614156107705761010080546106e490600190612306565b8154811061070257634e487b7160e01b600052603260045260246000fd5b60009182526020909120015461010080546001600160a01b03909216918390811061073d57634e487b7160e01b600052603260045260246000fd5b9060005260206000200160006101000a8154816001600160a01b0302191690836001600160a01b03160217905550610782565b8061077a81612349565b915050610676565b506101008054806107a357634e487b7160e01b600052603160045260246000fd5b60008281526020808220600019908401810180546001600160a01b03191690559092019092556001600160a01b0386168083526101048252604092839020805460ff1916905591519182527fd7e9ec6e6ecd65492dce6bf513cd6867560d49544421d0783ddf06e76c24470c91015b60405180910390a15060019392505050565b33600081815261010160205260409020546060919060ff166108585760405162461bcd60e51b815260040161054a906121c8565b60fd8054806020026020016040519081016040528092919081815260200182805480156105a9576020028201919060005260206000209081546001600160a01b0316815260019091019060200180831161058b57505050505091505090565b306001600160a01b037f00000000000000000000000000000000000000000000000000000000000000001614156109005760405162461bcd60e51b815260040161054a906121f6565b7f00000000000000000000000000000000000000000000000000000000000000006001600160a01b0316610949600080516020612391833981519152546001600160a01b031690565b6001600160a01b03161461096f5760405162461bcd60e51b815260040161054a90612242565b61097881611a7b565b6040805160008082526020820190925261099491839190611a83565b50565b306001600160a01b037f00000000000000000000000000000000000000000000000000000000000000001614156109e05760405162461bcd60e51b815260040161054a906121f6565b7f00000000000000000000000000000000000000000000000000000000000000006001600160a01b0316610a29600080516020612391833981519152546001600160a01b031690565b6001600160a01b031614610a4f5760405162461bcd60e51b815260040161054a90612242565b610a5882611a7b565b610a6482826001611a83565b5050565b6000306001600160a01b037f00000000000000000000000000000000000000000000000000000000000000001614610b085760405162461bcd60e51b815260206004820152603860248201527f555550535570677261646561626c653a206d757374206e6f742062652063616c60448201527f6c6564207468726f7567682064656c656761746563616c6c0000000000000000606482015260840161054a565b5060008051602061239183398151915290565b6000610b25611bfd565b6001600160a01b03821660009081526101036020526040902054829060ff16610b605760405162461bcd60e51b815260040161054a9061219c565b6001600160a01b03831660009081526101026020526040902054839060ff1615610bcc5760405162461bcd60e51b815260206004820152601a60248201527f4163636f756e7420616c726561647920617574686f72697a6564000000000000604482015260640161054a565b610bd4611c57565b6001600160a01b03841660008181526101026020526040808220805460ff1916600190811790915560fe8054918201815583527f54075df80ec1ae6ac9100e1fd0ebf3246c17f5c933137af392011f4c5f61513a0180546001600160a01b03191684179055517ff967f41cc1d0253371604dd23142273bdaf6513a10a58bc5d4cbcbce5913cd489190a25060019392505050565b610c70611bfd565b610c7a6000611c9d565b565b6000610c86611bfd565b6001600160a01b03821660009081526101016020526040902054829060ff16610cc15760405162461bcd60e51b815260040161054a906121c8565b60005b60fd54610cd390600190612306565b811015610dcd57836001600160a01b031660fd8281548110610d0557634e487b7160e01b600052603260045260246000fd5b6000918252602090912001546001600160a01b03161415610dbb5760fd8054610d3090600190612306565b81548110610d4e57634e487b7160e01b600052603260045260246000fd5b60009182526020909120015460fd80546001600160a01b039092169183908110610d8857634e487b7160e01b600052603260045260246000fd5b9060005260206000200160006101000a8154816001600160a01b0302191690836001600160a01b03160217905550610dcd565b80610dc581612349565b915050610cc4565b5060fd805480610ded57634e487b7160e01b600052603160045260246000fd5b60008281526020808220830160001990810180546001600160a01b03191690559092019092556001600160a01b0385168083526101019091526040808320805460ff191690555190917f3137a7fedbfedb7895dfa5a6812a4566dae9ded68d00aeec13c6ed1fa84a1c8091a250600192915050565b600054610100900460ff1615808015610e825750600054600160ff909116105b80610e9c5750303b158015610e9c575060005460ff166001145b610eff5760405162461bcd60e51b815260206004820152602e60248201527f496e697469616c697a61626c653a20636f6e747261637420697320616c72656160448201526d191e481a5b9a5d1a585b1a5e995960921b606482015260840161054a565b6000805460ff191660011790558015610f22576000805461ff0019166101001790555b610f2a611cef565b610f32611d1e565b610f3b33611c9d565b33600081815261010360205260408120805460ff1916600190811790915560ff805491820181559091527fe08ec2af2cfc251225e1968fd6ca21e4044f129bffa95bac3503be8bdb30a3670180546001600160a01b03191682179055610fa090611056565b50610faa33610b1b565b508015610994576000805461ff0019169055604051600181527f7f26b83ff96e1f2b6a682f133852f6798a09c465da95921460cefb38474024989060200160405180910390a150565b606061010080548060200260200160405190810160405280929190818152602001828054801561104c57602002820191906000526020600020905b81546001600160a01b0316815260019091019060200180831161102e575b5050505050905090565b6000611060611bfd565b6001600160a01b03821660009081526101016020526040902054829060ff16156110c45760405162461bcd60e51b815260206004820152601560248201527420b1b1b7bab73a1030b63932b0b23c9020b236b4b760591b604482015260640161054a565b6001600160a01b03831660009081526101036020526040902054839060ff166110ff5760405162461bcd60e51b815260040161054a9061219c565b611107611c57565b60fd805460018082019092557f9346ac6dd7de6b96975fec380d4d994c4c12e6a8897544f22915316cc6cca2800180546001600160a01b0319166001600160a01b03871690811790915560008181526101016020526040808220805460ff1916909417909355915190917f7849194239ab1d31b991b5436d81370256505cf25eaafbcccbc66acd1189691691a25060019392505050565b33600081815261010160205260409020546060919060ff166111d25760405162461bcd60e51b815260040161054a906121c8565b60fe8054806020026020016040519081016040528092919081815260200182805480156105a9576020028201919060005260206000209081546001600160a01b0316815260019091019060200180831161058b57505050505091505090565b336000818152610101602052604081205490919060ff166112645760405162461bcd60e51b815260040161054a906121c8565b826001600160a01b03811661128b5760405162461bcd60e51b815260040161054a9061228e565b611293611c57565b6001600160a01b0384166000908152610103602052604090205460ff161515600114156113025760405162461bcd60e51b815260206004820152601c60248201527f4164647265737320686173206265656e2057686974656c697374656400000000604482015260640161054a565b6001600160a01b03841660008181526101036020526040808220805460ff1916600190811790915560ff8054918201815583527fe08ec2af2cfc251225e1968fd6ca21e4044f129bffa95bac3503be8bdb30a3670180546001600160a01b03191684179055517f04ebd75b2707fb46a2bd5561d3d4aaae47f748b158c62678904bfebde6bd66fa9190a25060019392505050565b336000818152610101602052604081205490919060ff166113c95760405162461bcd60e51b815260040161054a906121c8565b826001600160a01b0381166113f05760405162461bcd60e51b815260040161054a9061228e565b6001600160a01b0384166000908152610103602052604090205460ff166114555760405162461bcd60e51b815260206004820152601960248201527820b2323932b9b9903737ba1030902634b9ba32b2102ab9b2b960391b604482015260640161054a565b6001600160a01b0384166000908152610101602052604090205460ff16156114825761148084610c7c565b505b60005b60ff5461149490600190612306565b81101561158e57846001600160a01b031660ff82815481106114c657634e487b7160e01b600052603260045260246000fd5b6000918252602090912001546001600160a01b0316141561157c5760ff80546114f190600190612306565b8154811061150f57634e487b7160e01b600052603260045260246000fd5b60009182526020909120015460ff80546001600160a01b03909216918390811061154957634e487b7160e01b600052603260045260246000fd5b9060005260206000200160006101000a8154816001600160a01b0302191690836001600160a01b0316021790555061158e565b8061158681612349565b915050611485565b5060ff8054806115ae57634e487b7160e01b600052603160045260246000fd5b60008281526020808220600019908401810180546001600160a01b03191690559092019092556001600160a01b0386168083526101038252604092839020805460ff1916905591519182527fe7c4f3734af7d1c6ebf990b3b403fba2d34b0811be0bf983c6f0259973118cff9101610812565b600061162b611bfd565b6001600160a01b03821660009081526101026020526040902054829060ff1661168f5760405162461bcd60e51b81526020600482015260166024820152751058d8dbdd5b9d081b9bdd08105d5d1a1bdc9a5e995960521b604482015260640161054a565b60005b60fe546116a190600190612306565b81101561179b57836001600160a01b031660fe82815481106116d357634e487b7160e01b600052603260045260246000fd5b6000918252602090912001546001600160a01b031614156117895760fe80546116fe90600190612306565b8154811061171c57634e487b7160e01b600052603260045260246000fd5b60009182526020909120015460fe80546001600160a01b03909216918390811061175657634e487b7160e01b600052603260045260246000fd5b9060005260206000200160006101000a8154816001600160a01b0302191690836001600160a01b0316021790555061179b565b8061179381612349565b915050611692565b5060fe8054806117bb57634e487b7160e01b600052603160045260246000fd5b60008281526020808220830160001990810180546001600160a01b03191690559092019092556001600160a01b0385168083526101029091526040808320805460ff191690555190917f16ff9ceec5934dbaafd95c8f14cc9a7e9007889c2fa6b55696785f7a0f10635791a250600192915050565b611838611bfd565b6001600160a01b03811661189d5760405162461bcd60e51b815260206004820152602660248201527f4f776e61626c653a206e6577206f776e657220697320746865207a65726f206160448201526564647265737360d01b606482015260840161054a565b61099481611c9d565b336000818152610101602052604090205460ff166118d65760405162461bcd60e51b815260040161054a906121c8565b6001600160a01b03821660009081526101036020526040902054829060ff166119115760405162461bcd60e51b815260040161054a9061219c565b6001600160a01b0383166000908152610104602052604090205460ff1615611975576040516001600160a01b03841681527f42e160154868087d6bfdc0ca23d96a1c1cfa32f1b72ba9ba27b69b98a0d819dc906020015b60405180910390a1505050565b6001600160a01b0383166000908152610101602052604090205460ff16156119a2576119a083610c7c565b505b6001600160a01b0383166000908152610102602052604090205460ff16156119cf576119cd83611621565b505b6001600160a01b038316600081815261010360209081526040808320805460ff19908116909155610100805460018181019092557f45e010b9ae401e2eb71529478da8bd513a9bdc2d095a111e324f5b95c09ed87b0180546001600160a01b03191687179055610104845293829020805490911690931790925590519182527f42e160154868087d6bfdc0ca23d96a1c1cfa32f1b72ba9ba27b69b98a0d819dc9101611968565b505050565b610994611bfd565b7f4910fdfa16fed3260ed0e7147f7cc6da11a60208b5b9406d12a635614ffd91435460ff1615611ab657611a7683611d4d565b826001600160a01b03166352d1902d6040518163ffffffff1660e01b815260040160206040518083038186803b158015611aef57600080fd5b505afa925050508015611b1f575060408051601f3d908101601f19168201909252611b1c918101906120e8565b60015b611b825760405162461bcd60e51b815260206004820152602e60248201527f45524331393637557067726164653a206e657720696d706c656d656e7461746960448201526d6f6e206973206e6f74205555505360901b606482015260840161054a565b6000805160206123918339815191528114611bf15760405162461bcd60e51b815260206004820152602960248201527f45524331393637557067726164653a20756e737570706f727465642070726f786044820152681a58589b195555525160ba1b606482015260840161054a565b50611a76838383611de9565b6033546001600160a01b03163314610c7a5760405162461bcd60e51b815260206004820181905260248201527f4f776e61626c653a2063616c6c6572206973206e6f7420746865206f776e6572604482015260640161054a565b60655460ff1615610c7a5760405162461bcd60e51b815260206004820152601060248201526f14185d5cd8589b194e881c185d5cd95960821b604482015260640161054a565b603380546001600160a01b038381166001600160a01b0319831681179093556040519116919082907f8be0079c531659141344cd1fd0a4f28419497f9722a3daafe3b4186f6b6457e090600090a35050565b600054610100900460ff16611d165760405162461bcd60e51b815260040161054a906122bb565b610c7a611e14565b600054610100900460ff16611d455760405162461bcd60e51b815260040161054a906122bb565b610c7a611e44565b6001600160a01b0381163b611dba5760405162461bcd60e51b815260206004820152602d60248201527f455243313936373a206e657720696d706c656d656e746174696f6e206973206e60448201526c1bdd08184818dbdb9d1c9858dd609a1b606482015260840161054a565b60008051602061239183398151915280546001600160a01b0319166001600160a01b0392909216919091179055565b611df283611e77565b600082511180611dff5750805b15611a7657611e0e8383611eb7565b50505050565b600054610100900460ff16611e3b5760405162461bcd60e51b815260040161054a906122bb565b610c7a33611c9d565b600054610100900460ff16611e6b5760405162461bcd60e51b815260040161054a906122bb565b6065805460ff19169055565b611e8081611d4d565b6040516001600160a01b038216907fbc7cd75a20ee27fd9adebab32041f755214dbc6bffa90cc0225b39da2e5c2d3b90600090a250565b60606001600160a01b0383163b611f1f5760405162461bcd60e51b815260206004820152602660248201527f416464726573733a2064656c65676174652063616c6c20746f206e6f6e2d636f6044820152651b9d1c9858dd60d21b606482015260840161054a565b600080846001600160a01b031684604051611f3a9190612100565b600060405180830381855af49150503d8060008114611f75576040519150601f19603f3d011682016040523d82523d6000602084013e611f7a565b606091505b5091509150611fa282826040518060600160405280602781526020016123b160279139611fab565b95945050505050565b60608315611fba575081611fc4565b611fc48383611fcb565b9392505050565b815115611fdb5781518083602001fd5b8060405162461bcd60e51b815260040161054a9190612169565b80356001600160a01b038116811461200c57600080fd5b919050565b600060208284031215612022578081fd5b611fc482611ff5565b6000806040838503121561203d578081fd5b61204683611ff5565b9150602083013567ffffffffffffffff80821115612062578283fd5b818501915085601f830112612075578283fd5b8135818111156120875761208761237a565b604051601f8201601f19908116603f011681019083821181831017156120af576120af61237a565b816040528281528860208487010111156120c7578586fd5b82602086016020830137856020848301015280955050505050509250929050565b6000602082840312156120f9578081fd5b5051919050565b6000825161211281846020870161231d565b9190910192915050565b6020808252825182820181905260009190848201906040850190845b8181101561215d5783516001600160a01b031683529284019291840191600101612138565b50909695505050505050565b602081526000825180602084015261218881604085016020870161231d565b601f01601f19169190910160400192915050565b60208082526012908201527120b1b1b7bab73a103737ba1030902ab9b2b960711b604082015260600190565b60208082526014908201527310591b5a5b88191bd95cc81b9bdd08195e1a5cdd60621b604082015260600190565b6020808252602c908201527f46756e6374696f6e206d7573742062652063616c6c6564207468726f7567682060408201526b19195b1959d85d1958d85b1b60a21b606082015260800190565b6020808252602c908201527f46756e6374696f6e206d7573742062652063616c6c6564207468726f7567682060408201526b6163746976652070726f787960a01b606082015260800190565b602080825260139082015272139bc81c1c9bdd9a591959081858d8dbdd5b9d606a1b604082015260600190565b6020808252602b908201527f496e697469616c697a61626c653a20636f6e7472616374206973206e6f74206960408201526a6e697469616c697a696e6760a81b606082015260800190565b60008282101561231857612318612364565b500390565b60005b83811015612338578181015183820152602001612320565b83811115611e0e5750506000910152565b600060001982141561235d5761235d612364565b5060010190565b634e487b7160e01b600052601160045260246000fd5b634e487b7160e01b600052604160045260246000fdfe360894a13ba1a3210667c828492db98dca3e2076cc3735a920a3ca505d382bbc416464726573733a206c6f772d6c6576656c2064656c65676174652063616c6c206661696c6564a26469706673582212209e7e54abaefd71b5273730eaed569ca6f3420f011c6a9d8afd3478f5c67ded7364736f6c63430008040033",
  "linkReferences": {},
  "deployedLinkReferences": {}
}